{
  "_format": "hh-sol-artifact-1",
  "contractName": "HashedVoice",
  "sourceName": "contracts/hashedVoice.sol",
  "abi": [
    {
      "inputs": [],
      "stateMutability": "nonpayable",
      "type": "constructor"
    },
    {
      "anonymous": false,
      "inputs": [
        {
          "indexed": true,
          "internalType": "uint256",
          "name": "id",
          "type": "uint256"
        },
        {
          "indexed": false,
          "internalType": "string",
          "name": "name",
          "type": "string"
        }
      ],
      "name": "CandidateAdded",
      "type": "event"
    },
    {
      "anonymous": false,
      "inputs": [
        {
          "indexed": true,
          "internalType": "address",
          "name": "voter",
          "type": "address"
        },
        {
          "indexed": true,
          "internalType": "uint256",
          "name": "candidateId",
          "type": "uint256"
        }
      ],
      "name": "Voted",
      "type": "event"
    },
    {
      "anonymous": false,
      "inputs": [
        {
          "indexed": true,
          "internalType": "address",
          "name": "voter",
          "type": "address"
        },
        {
          "indexed": false,
          "internalType": "bool",
          "name": "allowed",
          "type": "bool"
        }
      ],
      "name": "VoterEligibilitySet",
      "type": "event"
    },
    {
      "anonymous": false,
      "inputs": [],
      "name": "VotingClosed",
      "type": "event"
    },
    {
      "anonymous": false,
      "inputs": [],
      "name": "VotingOpened",
      "type": "event"
    },
    {
      "inputs": [
        {
          "internalType": "string",
          "name": "_name",
          "type": "string"
        }
      ],
      "name": "addCandidate",
      "outputs": [],
      "stateMutability": "nonpayable",
      "type": "function"
    },
    {
      "inputs": [],
      "name": "admin",
      "outputs": [
        {
          "internalType": "address",
          "name": "",
          "type": "address"
        }
      ],
      "stateMutability": "view",
      "type": "function"
    },
    {
      "inputs": [
        {
          "internalType": "uint256",
          "name": "",
          "type": "uint256"
        }
      ],
      "name": "candidates",
      "outputs": [
        {
          "internalType": "uint256",
          "name": "id",
          "type": "uint256"
        },
        {
          "internalType": "string",
          "name": "name",
          "type": "string"
        },
        {
          "internalType": "uint256",
          "name": "voteCount",
          "type": "uint256"
        }
      ],
      "stateMutability": "view",
      "type": "function"
    },
    {
      "inputs": [],
      "name": "candidatesCount",
      "outputs": [
        {
          "internalType": "uint256",
          "name": "",
          "type": "uint256"
        }
      ],
      "stateMutability": "view",
      "type": "function"
    },
    {
      "inputs": [],
      "name": "closeVoting",
      "outputs": [],
      "stateMutability": "nonpayable",
      "type": "function"
    },
    {
      "inputs": [],
      "name": "getCandidates",
      "outputs": [
        {
          "components": [
            {
              "internalType": "uint256",
              "name": "id",
              "type": "uint256"
            },
            {
              "internalType": "string",
              "name": "name",
              "type": "string"
            },
            {
              "internalType": "uint256",
              "name": "voteCount",
              "type": "uint256"
            }
          ],
          "internalType": "struct HashedVoice.Candidate[]",
          "name": "",
          "type": "tuple[]"
        }
      ],
      "stateMutability": "view",
      "type": "function"
    },
    {
      "inputs": [],
      "name": "getCurrentWinner",
      "outputs": [
        {
          "internalType": "uint256",
          "name": "winnerId",
          "type": "uint256"
        },
        {
          "internalType": "uint256",
          "name": "winnerVotes",
          "type": "uint256"
        }
      ],
      "stateMutability": "view",
      "type": "function"
    },
    {
      "inputs": [
        {
          "internalType": "address",
          "name": "_addr",
          "type": "address"
        }
      ],
      "name": "hasAddressVoted",
      "outputs": [
        {
          "internalType": "bool",
          "name": "",
          "type": "bool"
        }
      ],
      "stateMutability": "view",
      "type": "function"
    },
    {
      "inputs": [
        {
          "internalType": "address",
          "name": "",
          "type": "address"
        }
      ],
      "name": "hasVoted",
      "outputs": [
        {
          "internalType": "bool",
          "name": "",
          "type": "bool"
        }
      ],
      "stateMutability": "view",
      "type": "function"
    },
    {
      "inputs": [
        {
          "internalType": "address",
          "name": "_addr",
          "type": "address"
        }
      ],
      "name": "isAddressEligible",
      "outputs": [
        {
          "internalType": "bool",
          "name": "",
          "type": "bool"
        }
      ],
      "stateMutability": "view",
      "type": "function"
    },
    {
      "inputs": [
        {
          "internalType": "address",
          "name": "",
          "type": "address"
        }
      ],
      "name": "isEligible",
      "outputs": [
        {
          "internalType": "bool",
          "name": "",
          "type": "bool"
        }
      ],
      "stateMutability": "view",
      "type": "function"
    },
    {
      "inputs": [],
      "name": "openVoting",
      "outputs": [],
      "stateMutability": "nonpayable",
      "type": "function"
    },
    {
      "inputs": [
        {
          "internalType": "address",
          "name": "_voter",
          "type": "address"
        },
        {
          "internalType": "bool",
          "name": "_allowed",
          "type": "bool"
        }
      ],
      "name": "setEligible",
      "outputs": [],
      "stateMutability": "nonpayable",
      "type": "function"
    },
    {
      "inputs": [
        {
          "internalType": "uint256",
          "name": "_candidateId",
          "type": "uint256"
        }
      ],
      "name": "vote",
      "outputs": [],
      "stateMutability": "nonpayable",
      "type": "function"
    },
    {
      "inputs": [],
      "name": "votingOpen",
      "outputs": [
        {
          "internalType": "bool",
          "name": "",
          "type": "bool"
        }
      ],
      "stateMutability": "view",
      "type": "function"
    }
  ],
  "bytecode": "0x6080604052348015600f57600080fd5b50336000806101000a81548173ffffffffffffffffffffffffffffffffffffffff021916908373ffffffffffffffffffffffffffffffffffffffff16021790555060008060146101000a81548160ff021916908315150217905550611bfe806100796000396000f3fe608060405234801561001057600080fd5b50600436106100f55760003560e01c8063462e91ec11610097578063affc067011610066578063affc067014610289578063c631b29214610293578063e3e6ca7d1461029d578063f851a440146102cd576100f5565b8063462e91ec146101ef578063617775c61461020b57806366e305fd1461023b578063a95824b41461026b576100f5565b80630a2719ab116100d35780630a2719ab146101645780632d35a8a214610180578063329bfc331461019e5780633477ee2e146101bd576100f5565b80630121b93f146100fa57806306a49fce1461011657806309eef43e14610134575b600080fd5b610114600480360381019061010f9190610eaa565b6102eb565b005b61011e610571565b60405161012b9190611088565b60405180910390f35b61014e60048036038101906101499190611108565b6106e6565b60405161015b9190611150565b60405180910390f35b61017e60048036038101906101799190611197565b610706565b005b61018861083d565b60405161019591906111e6565b60405180910390f35b6101a6610843565b6040516101b4929190611201565b60405180910390f35b6101d760048036038101906101d29190610eaa565b6108b4565b6040516101e693929190611274565b60405180910390f35b610209600480360381019061020491906113e7565b610966565b005b61022560048036038101906102209190611108565b610af0565b6040516102329190611150565b60405180910390f35b61025560048036038101906102509190611108565b610b46565b6040516102629190611150565b60405180910390f35b610273610b66565b6040516102809190611150565b60405180910390f35b610291610b79565b005b61029b610ca0565b005b6102b760048036038101906102b29190611108565b610dc5565b6040516102c49190611150565b60405180910390f35b6102d5610e1b565b6040516102e2919061143f565b60405180910390f35b600060149054906101000a900460ff1661033a576040517f08c379a0000000000000000000000000000000000000000000000000000000008152600401610331906114a6565b60405180910390fd5b600460003373ffffffffffffffffffffffffffffffffffffffff1673ffffffffffffffffffffffffffffffffffffffff16815260200190815260200160002060009054906101000a900460ff166103c6576040517f08c379a00000000000000000000000000000000000000000000000000000000081526004016103bd90611512565b60405180910390fd5b600360003373ffffffffffffffffffffffffffffffffffffffff1673ffffffffffffffffffffffffffffffffffffffff16815260200190815260200160002060009054906101000a900460ff1615610453576040517f08c379a000000000000000000000000000000000000000000000000000000000815260040161044a9061157e565b60405180910390fd5b60008111801561046557506001548111155b6104a4576040517f08c379a000000000000000000000000000000000000000000000000000000000815260040161049b906115ea565b60405180910390fd5b6001600360003373ffffffffffffffffffffffffffffffffffffffff1673ffffffffffffffffffffffffffffffffffffffff16815260200190815260200160002060006101000a81548160ff02191690831515021790555060016002600083815260200190815260200160002060020160008282546105239190611639565b92505081905550803373ffffffffffffffffffffffffffffffffffffffff167f4d99b957a2bc29a30ebd96a7be8e68fe50a3c701db28a91436490b7d53870ca460405160405180910390a350565b6060600060015467ffffffffffffffff811115610591576105906112bc565b5b6040519080825280602002602001820160405280156105ca57816020015b6105b7610e3f565b8152602001906001900390816105af5790505b5090506000600190505b60015481116106de5760026000828152602001908152602001600020604051806060016040529081600082015481526020016001820180546106159061169c565b80601f01602080910402602001604051908101604052809291908181526020018280546106419061169c565b801561068e5780601f106106635761010080835404028352916020019161068e565b820191906000526020600020905b81548152906001019060200180831161067157829003601f168201915b50505050508152602001600282015481525050826001836106af91906116cd565b815181106106c0576106bf611701565b5b602002602001018190525080806106d690611730565b9150506105d4565b508091505090565b60036020528060005260406000206000915054906101000a900460ff1681565b60008054906101000a900473ffffffffffffffffffffffffffffffffffffffff1673ffffffffffffffffffffffffffffffffffffffff163373ffffffffffffffffffffffffffffffffffffffff1614610794576040517f08c379a000000000000000000000000000000000000000000000000000000000815260040161078b906117c4565b60405180910390fd5b80600460008473ffffffffffffffffffffffffffffffffffffffff1673ffffffffffffffffffffffffffffffffffffffff16815260200190815260200160002060006101000a81548160ff0219169083151502179055508173ffffffffffffffffffffffffffffffffffffffff167fc79dff597ffb61811288d53e8abf85142b25c7cb35109478c7148b0e597a8dba826040516108319190611150565b60405180910390a25050565b60015481565b6000806000806000600190505b60015481116108a757826002600083815260200190815260200160002060020154111561089457600260008281526020019081526020016000206002015492508091505b808061089f90611730565b915050610850565b5080829350935050509091565b60026020528060005260406000206000915090508060000154908060010180546108dd9061169c565b80601f01602080910402602001604051908101604052809291908181526020018280546109099061169c565b80156109565780601f1061092b57610100808354040283529160200191610956565b820191906000526020600020905b81548152906001019060200180831161093957829003601f168201915b5050505050908060020154905083565b60008054906101000a900473ffffffffffffffffffffffffffffffffffffffff1673ffffffffffffffffffffffffffffffffffffffff163373ffffffffffffffffffffffffffffffffffffffff16146109f4576040517f08c379a00000000000000000000000000000000000000000000000000000000081526004016109eb906117c4565b60405180910390fd5b6000815111610a38576040517f08c379a0000000000000000000000000000000000000000000000000000000008152600401610a2f90611830565b60405180910390fd5b6001806000828254610a4a9190611639565b92505081905550600060015490506040518060600160405280828152602001838152602001600081525060026000838152602001908152602001600020600082015181600001556020820151816001019081610aa691906119fc565b5060408201518160020155905050807fe83b2a43e7e82d975c8a0a6d2f045153c869e111136a34d1889ab7b598e396a383604051610ae49190611ace565b60405180910390a25050565b6000600460008373ffffffffffffffffffffffffffffffffffffffff1673ffffffffffffffffffffffffffffffffffffffff16815260200190815260200160002060009054906101000a900460ff169050919050565b60046020528060005260406000206000915054906101000a900460ff1681565b600060149054906101000a900460ff1681565b60008054906101000a900473ffffffffffffffffffffffffffffffffffffffff1673ffffffffffffffffffffffffffffffffffffffff163373ffffffffffffffffffffffffffffffffffffffff1614610c07576040517f08c379a0000000000000000000000000000000000000000000000000000000008152600401610bfe906117c4565b60405180910390fd5b600060149054906101000a900460ff1615610c57576040517f08c379a0000000000000000000000000000000000000000000000000000000008152600401610c4e90611b3c565b60405180910390fd5b6001600060146101000a81548160ff0219169083151502179055507fa737faa632a36c00ccb4220893426e922f9442f1cab67acd8301f88a596d4abc60405160405180910390a1565b60008054906101000a900473ffffffffffffffffffffffffffffffffffffffff1673ffffffffffffffffffffffffffffffffffffffff163373ffffffffffffffffffffffffffffffffffffffff1614610d2e576040517f08c379a0000000000000000000000000000000000000000000000000000000008152600401610d25906117c4565b60405180910390fd5b600060149054906101000a900460ff16610d7d576040517f08c379a0000000000000000000000000000000000000000000000000000000008152600401610d7490611ba8565b60405180910390fd5b60008060146101000a81548160ff0219169083151502179055507f66b6cb4a09abc3bf1cacc3c67420258856ffdad0deba9078cbd1658957b5021860405160405180910390a1565b6000600360008373ffffffffffffffffffffffffffffffffffffffff1673ffffffffffffffffffffffffffffffffffffffff16815260200190815260200160002060009054906101000a900460ff169050919050565b60008054906101000a900473ffffffffffffffffffffffffffffffffffffffff1681565b60405180606001604052806000815260200160608152602001600081525090565b6000604051905090565b600080fd5b600080fd5b6000819050919050565b610e8781610e74565b8114610e9257600080fd5b50565b600081359050610ea481610e7e565b92915050565b600060208284031215610ec057610ebf610e6a565b5b6000610ece84828501610e95565b91505092915050565b600081519050919050565b600082825260208201905092915050565b6000819050602082019050919050565b610f0c81610e74565b82525050565b600081519050919050565b600082825260208201905092915050565b60005b83811015610f4c578082015181840152602081019050610f31565b60008484015250505050565b6000601f19601f8301169050919050565b6000610f7482610f12565b610f7e8185610f1d565b9350610f8e818560208601610f2e565b610f9781610f58565b840191505092915050565b6000606083016000830151610fba6000860182610f03565b5060208301518482036020860152610fd28282610f69565b9150506040830151610fe76040860182610f03565b508091505092915050565b6000610ffe8383610fa2565b905092915050565b6000602082019050919050565b600061101e82610ed7565b6110288185610ee2565b93508360208202850161103a85610ef3565b8060005b8581101561107657848403895281516110578582610ff2565b945061106283611006565b925060208a0199505060018101905061103e565b50829750879550505050505092915050565b600060208201905081810360008301526110a28184611013565b905092915050565b600073ffffffffffffffffffffffffffffffffffffffff82169050919050565b60006110d5826110aa565b9050919050565b6110e5816110ca565b81146110f057600080fd5b50565b600081359050611102816110dc565b92915050565b60006020828403121561111e5761111d610e6a565b5b600061112c848285016110f3565b91505092915050565b60008115159050919050565b61114a81611135565b82525050565b60006020820190506111656000830184611141565b92915050565b61117481611135565b811461117f57600080fd5b50565b6000813590506111918161116b565b92915050565b600080604083850312156111ae576111ad610e6a565b5b60006111bc858286016110f3565b92505060206111cd85828601611182565b9150509250929050565b6111e081610e74565b82525050565b60006020820190506111fb60008301846111d7565b92915050565b600060408201905061121660008301856111d7565b61122360208301846111d7565b9392505050565b600082825260208201905092915050565b600061124682610f12565b611250818561122a565b9350611260818560208601610f2e565b61126981610f58565b840191505092915050565b600060608201905061128960008301866111d7565b818103602083015261129b818561123b565b90506112aa60408301846111d7565b949350505050565b600080fd5b600080fd5b7f4e487b7100000000000000000000000000000000000000000000000000000000600052604160045260246000fd5b6112f482610f58565b810181811067ffffffffffffffff82111715611313576113126112bc565b5b80604052505050565b6000611326610e60565b905061133282826112eb565b919050565b600067ffffffffffffffff821115611352576113516112bc565b5b61135b82610f58565b9050602081019050919050565b82818337600083830152505050565b600061138a61138584611337565b61131c565b9050828152602081018484840111156113a6576113a56112b7565b5b6113b1848285611368565b509392505050565b600082601f8301126113ce576113cd6112b2565b5b81356113de848260208601611377565b91505092915050565b6000602082840312156113fd576113fc610e6a565b5b600082013567ffffffffffffffff81111561141b5761141a610e6f565b5b611427848285016113b9565b91505092915050565b611439816110ca565b82525050565b60006020820190506114546000830184611430565b92915050565b7f566f74696e6720697320636c6f73656400000000000000000000000000000000600082015250565b600061149060108361122a565b915061149b8261145a565b602082019050919050565b600060208201905081810360008301526114bf81611483565b9050919050565b7f4e6f7420656c696769626c6520746f20766f7465000000000000000000000000600082015250565b60006114fc60148361122a565b9150611507826114c6565b602082019050919050565b6000602082019050818103600083015261152b816114ef565b9050919050565b7f416c726561647920766f74656400000000000000000000000000000000000000600082015250565b6000611568600d8361122a565b915061157382611532565b602082019050919050565b600060208201905081810360008301526115978161155b565b9050919050565b7f496e76616c69642063616e646964617465000000000000000000000000000000600082015250565b60006115d460118361122a565b91506115df8261159e565b602082019050919050565b60006020820190508181036000830152611603816115c7565b9050919050565b7f4e487b7100000000000000000000000000000000000000000000000000000000600052601160045260246000fd5b600061164482610e74565b915061164f83610e74565b92508282019050808211156116675761166661160a565b5b92915050565b7f4e487b7100000000000000000000000000000000000000000000000000000000600052602260045260246000fd5b600060028204905060018216806116b457607f821691505b6020821081036116c7576116c661166d565b5b50919050565b60006116d882610e74565b91506116e383610e74565b92508282039050818111156116fb576116fa61160a565b5b92915050565b7f4e487b7100000000000000000000000000000000000000000000000000000000600052603260045260246000fd5b600061173b82610e74565b91507fffffffffffffffffffffffffffffffffffffffffffffffffffffffffffffffff820361176d5761176c61160a565b5b600182019050919050565b7f4f6e6c792061646d696e00000000000000000000000000000000000000000000600082015250565b60006117ae600a8361122a565b91506117b982611778565b602082019050919050565b600060208201905081810360008301526117dd816117a1565b9050919050565b7f456d707479206e616d6500000000000000000000000000000000000000000000600082015250565b600061181a600a8361122a565b9150611825826117e4565b602082019050919050565b600060208201905081810360008301526118498161180d565b9050919050565b60008190508160005260206000209050919050565b60006020601f8301049050919050565b600082821b905092915050565b6000600883026118b27fffffffffffffffffffffffffffffffffffffffffffffffffffffffffffffffff82611875565b6118bc8683611875565b95508019841693508086168417925050509392505050565b6000819050919050565b60006118f96118f46118ef84610e74565b6118d4565b610e74565b9050919050565b6000819050919050565b611913836118de565b61192761191f82611900565b848454611882565b825550505050565b600090565b61193c61192f565b61194781848461190a565b505050565b5b8181101561196b57611960600082611934565b60018101905061194d565b5050565b601f8211156119b05761198181611850565b61198a84611865565b81016020851015611999578190505b6119ad6119a585611865565b83018261194c565b50505b505050565b600082821c905092915050565b60006119d3600019846008026119b5565b1980831691505092915050565b60006119ec83836119c2565b9150826002028217905092915050565b611a0582610f12565b67ffffffffffffffff811115611a1e57611a1d6112bc565b5b611a28825461169c565b611a3382828561196f565b600060209050601f831160018114611a665760008415611a54578287015190505b611a5e85826119e0565b865550611ac6565b601f198416611a7486611850565b60005b82811015611a9c57848901518255600182019150602085019450602081019050611a77565b86831015611ab95784890151611ab5601f8916826119c2565b8355505b6001600288020188555050505b505050505050565b60006020820190508181036000830152611ae8818461123b565b905092915050565b7f416c7265616479206f70656e0000000000000000000000000000000000000000600082015250565b6000611b26600c8361122a565b9150611b3182611af0565b602082019050919050565b60006020820190508181036000830152611b5581611b19565b9050919050565b7f416c726561647920636c6f736564000000000000000000000000000000000000600082015250565b6000611b92600e8361122a565b9150611b9d82611b5c565b602082019050919050565b60006020820190508181036000830152611bc181611b85565b905091905056fea2646970667358221220af0339c1b79a05509f65deff883032712fe89ca00a05ab848f3edeb81943d4f164736f6c634300081c0033",
  "linkReferences": {},
  "deployedLinkReferences": {}
}